{
  "contractName": "DecentralizedSchedule",
  "abi": [
    {
      "constant": true,
      "inputs": [
        {
          "name": "",
          "type": "address"
        }
      ],
      "name": "votings",
      "outputs": [
        {
          "name": "name",
          "type": "string"
        }
      ],
      "payable": false,
      "stateMutability": "view",
      "type": "function"
    },
    {
      "anonymous": false,
      "inputs": [
        {
          "indexed": false,
          "name": "voter",
          "type": "address"
        },
        {
          "indexed": true,
          "name": "signer",
          "type": "address"
        },
        {
          "indexed": false,
          "name": "voterName",
          "type": "string"
        },
        {
          "indexed": false,
          "name": "proposal",
          "type": "uint8"
        }
      ],
      "name": "VoteSingle",
      "type": "event"
    },
    {
      "constant": true,
      "inputs": [
        {
          "name": "signer",
          "type": "address"
        }
      ],
      "name": "voteSummary",
      "outputs": [
        {
          "name": "",
          "type": "string"
        },
        {
          "name": "",
          "type": "bytes32[]"
        },
        {
          "name": "",
          "type": "int128[]"
        }
      ],
      "payable": false,
      "stateMutability": "view",
      "type": "function"
    },
    {
      "constant": true,
      "inputs": [
        {
          "name": "signer",
          "type": "address"
        }
      ],
      "name": "voteCounts",
      "outputs": [
        {
          "name": "",
          "type": "int128[]"
        }
      ],
      "payable": false,
      "stateMutability": "view",
      "type": "function"
    },
    {
      "constant": true,
      "inputs": [
        {
          "name": "signer",
          "type": "address"
        }
      ],
      "name": "proposalNames",
      "outputs": [
        {
          "name": "namesarr",
          "type": "bytes32[]"
        }
      ],
      "payable": false,
      "stateMutability": "view",
      "type": "function"
    },
    {
      "constant": true,
      "inputs": [
        {
          "name": "signer",
          "type": "address"
        },
        {
          "name": "proposalIndex",
          "type": "uint8"
        }
      ],
      "name": "proposalName",
      "outputs": [
        {
          "name": "name",
          "type": "bytes32"
        }
      ],
      "payable": false,
      "stateMutability": "view",
      "type": "function"
    },
    {
      "constant": true,
      "inputs": [
        {
          "name": "str",
          "type": "string"
        }
      ],
      "name": "isEmpty",
      "outputs": [
        {
          "name": "",
          "type": "bool"
        }
      ],
      "payable": false,
      "stateMutability": "pure",
      "type": "function"
    },
    {
      "constant": false,
      "inputs": [
        {
          "name": "signer",
          "type": "address"
        },
        {
          "name": "name",
          "type": "string"
        },
        {
          "name": "proposalNamess",
          "type": "bytes32[]"
        }
      ],
      "name": "create",
      "outputs": [],
      "payable": false,
      "stateMutability": "nonpayable",
      "type": "function"
    },
    {
      "constant": true,
      "inputs": [
        {
          "name": "x",
          "type": "address"
        }
      ],
      "name": "addressToString",
      "outputs": [
        {
          "name": "",
          "type": "string"
        }
      ],
      "payable": false,
      "stateMutability": "pure",
      "type": "function"
    },
    {
      "constant": true,
      "inputs": [
        {
          "name": "b",
          "type": "bytes1"
        }
      ],
      "name": "char",
      "outputs": [
        {
          "name": "c",
          "type": "bytes1"
        }
      ],
      "payable": false,
      "stateMutability": "pure",
      "type": "function"
    },
    {
      "constant": true,
      "inputs": [
        {
          "name": "addr",
          "type": "address"
        }
      ],
      "name": "addressKeccak",
      "outputs": [
        {
          "name": "",
          "type": "bytes32"
        }
      ],
      "payable": false,
      "stateMutability": "pure",
      "type": "function"
    },
    {
      "constant": false,
      "inputs": [
        {
          "name": "name",
          "type": "string"
        },
        {
          "name": "proposal",
          "type": "uint8"
        },
        {
          "name": "prefixedSenderHash",
          "type": "bytes32"
        },
        {
          "name": "r",
          "type": "bytes32"
        },
        {
          "name": "s",
          "type": "bytes32"
        },
        {
          "name": "v",
          "type": "uint8"
        }
      ],
      "name": "vote",
      "outputs": [
        {
          "name": "",
          "type": "uint256"
        }
      ],
      "payable": false,
      "stateMutability": "nonpayable",
      "type": "function"
    }
  ],
  "bytecode": "0x6060604052341561000f57600080fd5b6119508061001e6000396000f3006060604052600436106100af576000357c0100000000000000000000000000000000000000000000000000000000900463ffffffff16806327341c8a146100b45780633402b01714610129578063369ef722146101e55780635e57966d14610297578063625c8e661461034957806366a267a9146103f957806369f9ad2f146104875780636a96a8a7146105245780637ed979851461066657806384f86433146106f4578063916ed7d714610749575b600080fd5b34156100bf57600080fd5b61010f600480803590602001908201803590602001908080601f016020809104026020016040519081016040528093929190818152602001838380828437820191505050505050919050506107aa565b604051808215151515815260200191505060405180910390f35b341561013457600080fd5b6101e3600480803573ffffffffffffffffffffffffffffffffffffffff1690602001909190803590602001908201803590602001908080601f01602080910402602001604051908101604052809392919081815260200183838082843782019150505050505091908035906020019082018035906020019080806020026020016040519081016040528093929190818152602001838360200280828437820191505050505050919050506107c4565b005b34156101f057600080fd5b61021c600480803573ffffffffffffffffffffffffffffffffffffffff16906020019091905050610a27565b6040518080602001828103825283818151815260200191508051906020019080838360005b8381101561025c578082015181840152602081019050610241565b50505050905090810190601f1680156102895780820380516001836020036101000a031916815260200191505b509250505060405180910390f35b34156102a257600080fd5b6102ce600480803573ffffffffffffffffffffffffffffffffffffffff16906020019091905050610add565b6040518080602001828103825283818151815260200191508051906020019080838360005b8381101561030e5780820151818401526020810190506102f3565b50505050905090810190601f16801561033b5780820380516001836020036101000a031916815260200191505b509250505060405180910390f35b341561035457600080fd5b6103e3600480803590602001908201803590602001908080601f0160208091040260200160405190810160405280939291908181526020018383808284378201915050505050509190803560ff1690602001909190803560001916906020019091908035600019169060200190919080356000191690602001909190803560ff16906020019091905050610cee565b6040518082815260200191505060405180910390f35b341561040457600080fd5b610430600480803573ffffffffffffffffffffffffffffffffffffffff16906020019091905050611187565b6040518080602001828103825283818151815260200191508051906020019060200280838360005b83811015610473578082015181840152602081019050610458565b505050509050019250505060405180910390f35b341561049257600080fd5b6104ca60048080357effffffffffffffffffffffffffffffffffffffffffffffffffffffffffffff191690602001909190505061127d565b60405180827effffffffffffffffffffffffffffffffffffffffffffffffffffffffffffff19167effffffffffffffffffffffffffffffffffffffffffffffffffffffffffffff1916815260200191505060405180910390f35b341561052f57600080fd5b61055b600480803573ffffffffffffffffffffffffffffffffffffffff1690602001909190505061136d565b60405180806020018060200180602001848103845287818151815260200191508051906020019080838360005b838110156105a3578082015181840152602081019050610588565b50505050905090810190601f1680156105d05780820380516001836020036101000a031916815260200191505b50848103835286818151815260200191508051906020019060200280838360005b8381101561060c5780820151818401526020810190506105f1565b50505050905001848103825285818151815260200191508051906020019060200280838360005b8381101561064e578082015181840152602081019050610633565b50505050905001965050505050505060405180910390f35b341561067157600080fd5b61069d600480803573ffffffffffffffffffffffffffffffffffffffff16906020019091905050611481565b6040518080602001828103825283818151815260200191508051906020019060200280838360005b838110156106e05780820151818401526020810190506106c5565b505050509050019250505060405180910390f35b34156106ff57600080fd5b61072b600480803573ffffffffffffffffffffffffffffffffffffffff1690602001909190505061156c565b60405180826000191660001916815260200191505060405180910390f35b341561075457600080fd5b61078c600480803573ffffffffffffffffffffffffffffffffffffffff1690602001909190803560ff16906020019091905050611608565b60405180826000191660001916815260200191505060405180910390f35b60006107b4611675565b8290506000815114915050919050565b6000806000808673ffffffffffffffffffffffffffffffffffffffff1673ffffffffffffffffffffffffffffffffffffffff16815260200190815260200160002091506108ac826000018054600181600116156101000203166002900480601f0160208091040260200160405190810160405280929190818152602001828054600181600116156101000203166002900480156108a25780601f10610877576101008083540402835291602001916108a2565b820191906000526020600020905b81548152906001019060200180831161088557829003601f168201915b50505050506107aa565b15156108b757600080fd5b600090505b8251811015610986578160010180548060010182816108db9190611689565b916000526020600020906002020160006040805190810160405280878681518110151561090457fe5b906020019060200201516000191681526020016000600f0b81525090919091506000820151816000019060001916905560208201518160010160006101000a8154816fffffffffffffffffffffffffffffffff0219169083600f0b6fffffffffffffffffffffffffffffffff16021790555050505080806001019150506108bc565b8382600001908051906020019061099e9291906116bb565b50816000808773ffffffffffffffffffffffffffffffffffffffff1673ffffffffffffffffffffffffffffffffffffffff16815260200190815260200160002060008201816000019080546001816001161561010002031660029004610a0592919061173b565b506001820181600101908054610a1c9291906117c2565b509050505050505050565b6000602052806000526040600020600091509050806000018054600181600116156101000203166002900480601f016020809104026020016040519081016040528092919081815260200182805460018160011615610100020316600290048015610ad35780601f10610aa857610100808354040283529160200191610ad3565b820191906000526020600020905b815481529060010190602001808311610ab657829003601f168201915b5050505050905081565b610ae5611879565b610aed611675565b6000806000806028604051805910610b025750595b9080825280601f01601f19166020018201604052509450600093505b6014841015610ce1578360130360080260020a8773ffffffffffffffffffffffffffffffffffffffff16811515610b5157fe5b047f01000000000000000000000000000000000000000000000000000000000000000292506010837f0100000000000000000000000000000000000000000000000000000000000000900460ff16811515610ba857fe5b047f0100000000000000000000000000000000000000000000000000000000000000029150817f01000000000000000000000000000000000000000000000000000000000000009004601002837f01000000000000000000000000000000000000000000000000000000000000009004037f0100000000000000000000000000000000000000000000000000000000000000029050610c468261127d565b8585600202815181101515610c5757fe5b9060200101907effffffffffffffffffffffffffffffffffffffffffffffffffffffffffffff1916908160001a905350610c908161127d565b8560018660020201815181101515610ca457fe5b9060200101907effffffffffffffffffffffffffffffffffffffffffffffffffffffffffffff1916908160001a9053508380600101945050610b1e565b8495505050505050919050565b6000806000808760001916610d023361156c565b60001916141515610d1257600080fd5b600188868989604051600081526020016040526040518085600019166000191681526020018460ff1660ff1681526020018360001916600019168152602001826000191660001916815260200194505050505060206040516020810390808403906000865af11515610d8357600080fd5b50506020604051035192506000808473ffffffffffffffffffffffffffffffffffffffff1673ffffffffffffffffffffffffffffffffffffffff1681526020019081526020016000209150610e73826000018054600181600116156101000203166002900480601f016020809104026020016040519081016040528092919081815260200182805460018160011615610100020316600290048015610e695780601f10610e3e57610100808354040283529160200191610e69565b820191906000526020600020905b815481529060010190602001808311610e4c57829003601f168201915b50505050506107aa565b151515610e7f57600080fd5b81600101805490508960ff16101515610e9757600080fd5b8160020160003373ffffffffffffffffffffffffffffffffffffffff1673ffffffffffffffffffffffffffffffffffffffff16815260200190815260200160002090508060000160009054906101000a900460ff1615610f69576001826001018260010154815481101515610f0857fe5b906000526020600020906002020160010160008282829054906101000a9004600f0b0392506101000a8154816fffffffffffffffffffffffffffffffff0219169083600f0b6fffffffffffffffffffffffffffffffff160217905550610fc7565b60018260020160003373ffffffffffffffffffffffffffffffffffffffff1673ffffffffffffffffffffffffffffffffffffffff16815260200190815260200160002060000160006101000a81548160ff0219169083151502179055505b8860ff168260020160003373ffffffffffffffffffffffffffffffffffffffff1673ffffffffffffffffffffffffffffffffffffffff168152602001908152602001600020600101819055506001826001018a60ff1681548110151561102957fe5b906000526020600020906002020160010160008282829054906101000a9004600f0b0192506101000a8154816fffffffffffffffffffffffffffffffff0219169083600f0b6fffffffffffffffffffffffffffffffff1602179055508273ffffffffffffffffffffffffffffffffffffffff167fa89c6dcec29dabf77f74810c25118c11b0b6e871093b99e317a83a6c20a984bf338c8c604051808473ffffffffffffffffffffffffffffffffffffffff1673ffffffffffffffffffffffffffffffffffffffff168152602001806020018360ff1660ff168152602001828103825284818151815260200191508051906020019080838360005b8381101561113e578082015181840152602081019050611123565b50505050905090810190601f16801561116b5780820380516001836020036101000a031916815260200191505b5094505050505060405180910390a25050509695505050505050565b61118f61188d565b600061119961188d565b60008060008673ffffffffffffffffffffffffffffffffffffffff1673ffffffffffffffffffffffffffffffffffffffff168152602001908152602001600020600101925082805490506040518059106111f05750595b90808252806020026020018201604052509150600090505b828054905081101561127257828181548110151561122257fe5b906000526020600020906002020160010160009054906101000a9004600f0b828281518110151561124f57fe5b90602001906020020190600f0b9081600f0b815250508080600101915050611208565b819350505050919050565b6000600a7f010000000000000000000000000000000000000000000000000000000000000002827effffffffffffffffffffffffffffffffffffffffffffffffffffffffffffff1916101561131c576030827f01000000000000000000000000000000000000000000000000000000000000009004017f0100000000000000000000000000000000000000000000000000000000000000029050611368565b6057827f01000000000000000000000000000000000000000000000000000000000000009004017f01000000000000000000000000000000000000000000000000000000000000000290505b919050565b611375611879565b61137d6118a1565b61138561188d565b6000808573ffffffffffffffffffffffffffffffffffffffff1673ffffffffffffffffffffffffffffffffffffffff1681526020019081526020016000206000016113cf85611481565b6113d886611187565b828054600181600116156101000203166002900480601f01602080910402602001604051908101604052809291908181526020018280546001816001161561010002031660029004801561146d5780601f106114425761010080835404028352916020019161146d565b820191906000526020600020905b81548152906001019060200180831161145057829003601f168201915b505050505092509250925092509193909250565b6114896118a1565b60006114936118a1565b60008060008673ffffffffffffffffffffffffffffffffffffffff1673ffffffffffffffffffffffffffffffffffffffff168152602001908152602001600020600101925082805490506040518059106114ea5750595b90808252806020026020018201604052509150600090505b828054905081101561156157828181548110151561151c57fe5b906000526020600020906002020160000154828281518110151561153c57fe5b9060200190602002019060001916908160001916815250508080600101915050611502565b819350505050919050565b600061157782610add565b60405180807f19457468657265756d205369676e6564204d6573736167653a0a343230780000815250601e0182805190602001908083835b6020831015156115d457805182526020820191506020810190506020830392506115af565b6001836020036101000a03801982511681845116808217855250505050505090500191505060405180910390209050919050565b60008060008473ffffffffffffffffffffffffffffffffffffffff1673ffffffffffffffffffffffffffffffffffffffff1681526020019081526020016000206001018260ff1681548110151561165b57fe5b906000526020600020906002020160000154905092915050565b602060405190810160405280600081525090565b8154818355818115116116b6576002028160020283600052602060002091820191016116b591906118b5565b5b505050565b828054600181600116156101000203166002900490600052602060002090601f016020900481019282601f106116fc57805160ff191683800117855561172a565b8280016001018555821561172a579182015b8281111561172957825182559160200191906001019061170e565b5b50905061173791906118ff565b5090565b828054600181600116156101000203166002900490600052602060002090601f016020900481019282601f1061177457805485556117b1565b828001600101855582156117b157600052602060002091601f016020900482015b828111156117b0578254825591600101919060010190611795565b5b5090506117be91906118ff565b5090565b8280548282559060005260206000209060020281019282156118685760005260206000209160020282015b82811115611867578282600082015481600001906000191690556001820160009054906101000a9004600f0b8160010160006101000a8154816fffffffffffffffffffffffffffffffff0219169083600f0b6fffffffffffffffffffffffffffffffff1602179055505050916002019190600201906117ed565b5b50905061187591906118b5565b5090565b602060405190810160405280600081525090565b602060405190810160405280600081525090565b602060405190810160405280600081525090565b6118fc91905b808211156118f8576000808201600090556001820160006101000a8154906fffffffffffffffffffffffffffffffff0219169055506002016118bb565b5090565b90565b61192191905b8082111561191d576000816000905550600101611905565b5090565b905600a165627a7a72305820cdac1fe197a8e8e93b9b000d8525c915ed1abde4e2f901ec3a92492cf08de1110029",
  "source": "pragma solidity ^0.4.20;\n\ncontract DecentralizedSchedule {\n   \n    // This is a type for a single proposal.\n    struct Proposal {\n        bytes32 name; \n        int128 voteCount; // number of accumulated votes\n    }\n\n    struct UserVote {\n        bool voted;\n        uint proposalIndex;\n    }\n\n    struct Voting {\n        string name;\n        Proposal[] proposals;\n        mapping(address => UserVote) votes;\n    }\n\n    // Key here is the unique address generated for each voting, called \"signer\"\n    mapping(address => Voting) public votings;\n\n    function voteSummary(address signer) public constant returns (string, bytes32[], int128[]) {\n        return (votings[signer].name, proposalNames(signer), voteCounts(signer));\n    }\n    \n    function voteCounts(address signer) public constant returns (int128[]) {\n        Proposal[] storage ps = votings[signer].proposals;\n        int128[] memory arr = new int128[](ps.length);\n        for (uint i = 0; i < ps.length; i++) {\n            arr[i] = ps[i].voteCount;\n        }\n        return arr;\n    }\n\n    function proposalNames(address signer) public constant returns (bytes32[] namesarr) {\n        Proposal[] storage ps = votings[signer].proposals;\n        bytes32[] memory arr = new bytes32[](ps.length);\n        for (uint i = 0; i < ps.length; i++) {\n            arr[i] = ps[i].name;\n        }\n        return arr;\n    }\n\n\n    function proposalName(address signer, uint8 proposalIndex) public constant returns (bytes32 name) {\n        return votings[signer].proposals[proposalIndex].name;\n    }\n    \n    function isEmpty(string str) pure public returns (bool)  {\n        bytes memory tempEmptyStringTest = bytes(str);\n        return (tempEmptyStringTest.length == 0);\n    }\n    \n    function create(address signer, string name, bytes32[] proposalNamess) public {\n        Voting storage voting = votings[signer];\n        require(isEmpty(voting.name));\n               \n        /* // TODO validations of proposalNamess, escape etc. */\n        for (uint i = 0; i < proposalNamess.length; i++) {                        \n            voting.proposals.push(Proposal({\n                name: proposalNamess[i],\n                voteCount: 0\n            }));\n        }\n        voting.name = name;\n        votings[signer] = voting;\n    }\n\n    event VoteSingle(address voter, address indexed signer, string voterName, uint8 proposal);\n\n    function addressToString(address x) pure public returns (string) {\n        bytes memory s = new bytes(40);\n        for (uint i = 0; i < 20; i++) {\n            byte b = byte(uint8(uint(x) / (2**(8*(19 - i)))));\n            byte hi = byte(uint8(b) / 16);\n            byte lo = byte(uint8(b) - 16 * uint8(hi));\n            s[2 * i] = char(hi);\n            s[2 * i + 1] = char(lo);            \n        }\n        return string(s);\n    }\n\n    function char(byte b) pure public returns (byte c)  {\n        if (b < 10) return byte(uint8(b) + 0x30);\n        else return byte(uint8(b) + 0x57);\n    }\n        \n    function addressKeccak(address addr) pure public returns(bytes32) {\n        // The \"42\" here stands for string length of an address\n        return keccak256(\"\\x19Ethereum Signed Message:\\n420x\", addressToString(addr));\n    }\n\n    function vote(string name, uint8 proposal, bytes32 prefixedSenderHash, bytes32 r, bytes32 s, uint8 v) public returns (uint256) {\n        // compare hashes -> this way no one can send votes as other users\n        require(addressKeccak(msg.sender) == prefixedSenderHash);\n        // derive signer from the signature\n        address signer = ecrecover(prefixedSenderHash, v, r, s);\n        Voting storage voting = votings[signer];\n        require(!isEmpty(voting.name));\n        require(proposal < voting.proposals.length);\n\n        UserVote storage prevVote = voting.votes[msg.sender];\n        if (prevVote.voted) {\n            voting.proposals[prevVote.proposalIndex].voteCount -= 1;\n        }\n        else {\n            voting.votes[msg.sender].voted = true;\n        }\n        \n        voting.votes[msg.sender].proposalIndex = proposal;\n    \n        voting.proposals[proposal].voteCount += 1;\n\n        emit VoteSingle (msg.sender, signer, name, proposal);\n\n    } \n}",
  "sourcePath": "/home/metadojo/org/reactdojo2/contracts/DecentralizedSchedule.sol",
  "compiler": {
    "name": "solc",
    "version": "0.4.21+commit.dfe3193c.Emscripten.clang"
  },
  "schemaVersion": "2.0.0",
  "updatedAt": "2018-03-27T02:32:52.577Z"
}